:020000040800F2
:1000000000000320ED1000082D0600082F06000850
:10001000310600083306000835060008000000001D
:10002000000000000000000000000000370600088B
:1000300039060008000000003B0600083D060008E5
:100040003D1100083D1100083D1100083D11000858
:100050003D1100083D1100083D1100083D11000848
:100060003D1100083D1100083D1100083D11000838
:100070003D1100083D1100083D1100083D11000828
:100080003D1100083D1100083D1100083D11000818
:100090003D1100083D1100083D1100083D11000808
:1000A0003D1100083D1100083D1100083D110008F8
:1000B0003D1100083D1100083D1100083D110008E8
:1000C0003D1100083D1100083D1100083D110008D8
:1000D0003D1100083D1100083D1100083D110008C8
:1000E0003D1100083D1100083D1100083D110008B8
:1000F0003D1100083D1100083D1100083D110008A8
:100100003D1100083D1100083D1100083D11000897
:100110003D1100083D1100083D1100083D11000887
:100120003D1100083D1100083D1100083D11000877
:100130003D1100083D1100083D1100083D11000867
:100140003D1100083D1100083D1100083D11000857
:100150003D1100083D1100083D1100083D11000847
:100160003D1100083D1100083D1100083D11000837
:100170003D1100083D1100083D110008000000007D
:100180003D1100083D1100083D1100083D11000817
:100190003D1100083D1100083D1100083D11000807
:0C01A00000000000000000003D110008FD
:1001AC000348044B834202D0034B03B118477047FA
:1001BC000C0000200C000020000000000548064B3D
:1001CC001B1AD90F01EBA301491002D0034B03B149
:1001DC00184770470C0000200C00002000000000A5
:1001EC0010B5064C237843B9FFF7DAFF044B13B173
:1001FC000448AFF300800123237010BD0C000020D5
:10020C00000000009811000808B5044B1BB104490C
:10021C000448AFF30080BDE80840CFE700000000C1
:10022C00100000209811000853B94AB9002908BFE2
:10023C0000281CBF4FF0FF314FF0FF3000F06AB9BF
:10024C00ADF1080C6DE904CE00F006F8DDF804E021
:10025C00DDE9022304B070472DE9F047089D0C46F8
:10026C00002B4ED194468C458646B2FA82F262D966
:10027C004AB1C2F12003914020FA03F30CFA02FCBC
:10028C00194300FA02FE4FEA1C471FFA8CF6B1FB29
:10029C00F7F44FEA1E4307FB141143EA014304FB36
:1002AC0006F199420AD91CEB030304F1FF3080F0EC
:1002BC001281994240F20F81023C6344591A1FFA91
:1002CC008EF3B1FBF7F007FB101143EA014300FB7F
:1002DC0006F69E420AD91CEB030300F1FF3180F0B5
:1002EC00FC809E4240F2F980634402389B1B40EA3A
:1002FC00044000211DB1D3400022C5E90032BDE805
:10030C00F0878B4205D90DB1C5E9000100210846E3
:10031C00F5E7B3FA83F1002946D1A34202D3904208
:10032C00C0F0F080861A64EB03030120002DE6D0A8
:10033C00C5E90063E3E7002A40F09080A1EB0C04D0
:10034C004FEA1C481FFA8CF70121B4FBF8F64FEA70
:10035C001E4308FB164443EA044307FB06F098428D
:10036C0008D91CEB030306F1FF3402D2984200F2C9
:10037C00CD8026461C1A1FFA8EF3B4FBF8F008FB4E
:10038C00104443EA044300FB07F79F4208D91CEBD7
:10039C00030300F1FF3402D29F4200F2B0802046EA
:1003AC00DB1B40EA0640A5E7C1F120068B4022FA90
:1003BC0006F71F4320FA06FC04FA01F343EA0C0388
:1003CC00F44000FA01F8380C4FEA1349B4FBF0FE84
:1003DC001FFA87FC00FB1E4449EA04440EFB0CF98F
:1003EC00A14502FA01F20AD93C190EF1FF3A80F04C
:1003FC008480A14540F28180AEF1020E3C44A4EB16
:10040C0009041FFA83F9B4FBF0F300FB134449EA27
:10041C00044403FB0CFCA44507D93C1903F1FF3041
:10042C0067D2A44565D9023B3C4443EA0E40A0FB8D
:10043C000293A4EB0C049C42CE469C4651D34ED066
:10044C0055B1B8EB0E0364EB0C0404FA06F6CB4082
:10045C001E43CC40C5E90064002150E7C2F12003E3
:10046C0020FA03F10CFA02FC24FA03F394400C4337
:10047C004FEA1C4800FA02FE1FFA8CF7B3FBF8F0A7
:10048C0008FB1031230C43EA014300FB07F19942AE
:10049C0008D91CEB030300F1FF362CD299422AD960
:1004AC00023863445B1AA4B2B3FBF8F108FB1133B6
:1004BC0044EA034401FB07F3A34208D91CEB0404F0
:1004CC0001F1FF3613D2A34211D902396444E41A64
:1004DC0041EA004139E70446F0E6084606E7C8451C
:1004EC00AED2B9EB020E63EB070C0138A8E731462C
:1004FC00EDE7034699E73046D4E7D6467FE76344F9
:10050C0002384DE70646234608460FE7023E634491
:10051C0030E700BF704700BF72B6FEE700B595B07C
:10052C003022002108A800F029FE00230393049335
:10053C000593069307930193204A116C41F0805167
:10054C001164126C02F080520192019A02931C4ABF
:10055C00136823F4404343F480431360136803F49B
:10056C0040430293029B012308934FF48033099379
:10057C0002220E924FF480030F9304231093322126
:10058C0011911292139308A800F072F888B90F23F6
:10059C00039302230493002305934FF48052069295
:1005AC000793012103A800F0CDFA20B915B05DF82E
:1005BC0004FBFFF7B1FFFFF7AFFF00BF00380240AD
:1005CC000070004008B500F007FDFFF7A7FF00F032
:1005DC0039FD0121022000F06BFD0121084600F0DD
:1005EC0067FD19E001330D4A9342FBD9002101202C
:1005FC0000F05EFD0121022000F05AFD002300E016
:10060C000133064A9342FBD90121084600F050FD04
:10061C000021022000F04CFD0023E4E73F420F00D4
:10062C00FEE7FEE7FEE7FEE7FEE770477047704720
:10063C0008B500F0EBFC08BD82B0002100910B4B1B
:10064C005A6C42F480425A645A6C02F48042009212
:10065C00009A01911A6C42F080521A641B6C03F0E0
:10066C0080530193019B02B0704700BF00380240D9
:10067C00002800F0E08170B582B00446036813F0E6
:10068C00010F3BD09F4B9B6803F00C03042B2CD029
:10069C009C4B9B6803F00C03082B21D06368B3F5CB
:1006AC00803F4FD0B3F5A02F52D0964B1A6822F44E
:1006BC0080321A601A6822F480221A606368002B58
:1006CC0050D000F0AFFC05468E4B1B6813F4003F76
:1006DC0014D100F0A7FC401B6428F5D90320B1E12C
:1006EC00884B5B6813F4800FD8D0864B1B6813F4CF
:1006FC00003F03D06368002B00F09F81236813F048
:10070C00020F54D07F4B9B6813F00C0F3ED07D4BE7
:10071C009B6803F00C03082B33D0E368002B68D0E4
:10072C00794B01221A6000F07DFC0546754B1B6865
:10073C0013F0020F54D100F075FC401B0228F5D9C0
:10074C0003207FE16F4A136843F480331360B5E7ED
:10075C006C4B1A6842F480221A601A6842F4803298
:10076C001A60ABE700F05EFC0546664B1B6813F4A1
:10077C00003FC3D000F056FC401B6428F5D9032081
:10078C0060E1604B5B6813F4800FC6D15D4B1B6856
:10079C0013F0020F03D0E368012B40F05081594A4B
:1007AC00136823F0F803216943EAC103136023683B
:1007BC0013F0080F42D063696BB3534B0122C3F89B
:1007CC00802E00F02FFC05464E4B5B6F13F0020F92
:1007DC0034D100F027FC401B0228F5D9032031E16D
:1007EC00484A136823F0F803216943EAC1031360F4
:1007FC00DDE7454B00221A6000F014FC0546414B26
:10080C001B6813F0020FD2D000F00CFC401B022826
:10081C00F5D9032016E13C4B0022C3F8802E00F0E2
:10082C0001FC0546374B5B6F13F0020F06D000F04E
:10083C00F9FB401B0228F5D9032003E1236813F0D0
:10084C00040F77D02F4B1B6C13F0805F33D1002338
:10085C0001932C4B1A6C42F080521A641B6C03F0FF
:10086C0080530193019B0125284B1B6813F4807F57
:10087C0023D0A368012B34D0052B38D0214B1A6F11
:10088C0022F001021A671A6F22F004021A67A36899
:10089C00002B3DD000F0C6FB06461A4B1B6F13F025
:1008AC00020F46D100F0BEFB801B41F28833984208
:1008BC00F3D90320C6E00025D6E7144A136843F4A5
:1008CC008073136000F0AEFB0646104B1B6813F4EC
:1008DC00807FCED100F0A6FB801B0228F5D9032027
:1008EC00B0E0084A136F43F001031367CFE7054BE1
:1008FC001A6F42F004021A671A6F42F001021A676B
:10090C00C5E700BF003802400000474200700040BD
:10091C0000F088FB0646524B1B6F13F0020F08D0F9
:10092C0000F080FB801B41F288339842F3D90320FE
:10093C0088E0EDB9A369002B00F08380484A9268E7
:10094C0002F00C02082A51D0022B17D0454B002282
:10095C001A6600F067FB0446414B1B6813F0007FDE
:10096C0042D000F05FFB001B0228F5D9032069E0A0
:10097C003B4A136C23F080531364DBE7394B0022A2
:10098C001A6600F04FFB0546354B1B6813F0007FD1
:10099C0006D000F047FB401B0228F5D9032051E09C
:1009AC00E369226A1343626A43EA8213A26A520819
:1009BC00013A43EA0243E26A43EA0263284A53607B
:1009CC00284B01221A6600F02DFB0446244B1B68B1
:1009DC0013F0007F06D100F025FB001B0228F5D98F
:1009EC0003202FE000202DE000202BE0012B2BD04A
:1009FC001B4B5B6803F48001E269914226D103F042
:100A0C003F02216A8A4223D1616A47F6C0721A40BA
:100A1C00B2EB811F1ED103F44031A26A5208013A95
:100A2C00B1EB024F18D103F07063E26AB3EB026FC3
:100A3C0014D1002006E001207047012002E00120C3
:100A4C0000E0002002B070BD0120FBE70120F9E7B7
:100A5C000120F7E70120F5E70120F3E70120F1E79A
:100A6C00003802400000474208B5334B9B6803F046
:100A7C000C03042B5BD0082B5BD12F4B5A6802F074
:100A8C003F025B6813F4800F2CD02B4B5868C0F3DB
:100A9C0088104FEA401CBCEB000C6EEB0E0E4FEABC
:100AAC008E1343EA9C634FEA8C11B1EB0C0163EBA0
:100ABC000E03DB0043EA5173C90011EB000C43F148
:100ACC000003590200234FEA4C2041EADC51FFF7A6
:100ADC00ABFB194B5B68C3F3014301335B00B0FB09
:100AEC00F3F027E0144B5868C0F388104FEA401C11
:100AFC00BCEB000C6EEB0E0E4FEA8E1343EA9C63BC
:100B0C004FEA8C11B1EB0C0163EB0E03DB0043EAF3
:100B1C005173C90011EB000C43F10003990200233F
:100B2C004FEA8C2041EA9C51FFF77EFBD1E703484A
:100B3C0000E0034808BD00BF0038024000127A00F4
:100B4C000024F400002800F09B8070B50D4604468C
:100B5C004F4B1B6803F00F038B4208D2CBB24C4AAD
:100B6C001370136803F00F038B4240F08B802368E3
:100B7C0013F0020F17D013F0040F04D0454A9368FA
:100B8C0043F4E0539360236813F0080F04D0414AF8
:100B9C00936843F4604393603E4A936823F0F003F8
:100BAC00A1680B439360236813F0010F32D0636884
:100BBC00012B21D09A1E012A25D9364A126812F02F
:100BCC00020F61D033498A6822F0030213438B6011
:100BDC0000F028FA06462F4B9B6803F00C03626862
:100BEC00B3EB820F16D000F01DFA801B41F2883354
:100BFC009842F0D9032042E0264A126812F4003FD2
:100C0C00E0D101203BE0234A126812F0007FD9D1D9
:100C1C00012034E01E4B1B6803F00F03AB4207D9D5
:100C2C00EAB21B4B1A701B6803F00F03AB422DD1B9
:100C3C00236813F0040F06D0164A936823F4E0538C
:100C4C00E1680B439360236813F0080F07D0114A37
:100C5C00936823F46043216943EAC1039360FFF76F
:100C6C0003FF0C4B9B68C3F303130B4AD35CD840B4
:100C7C000A4B18600A4B186800F088F9002070BD08
:100C8C00012070470120FAE70120F8E70120F6E780
:100C9C00003C024000380240B0110008080000205F
:100CAC000400002000230F2B00F2F68070B582B0F8
:100CBC0066E085684FEA430E032404FA0EF425EA35
:100CCC000405CC6804FA0EF42C438460446824EACE
:100CDC0002044A68C2F300129A40224342605DE06B
:100CEC00DC08083450F8242003F00705AD004FF061
:100CFC000F0E0EFA05FE22EA0E0E0A69AA4042EA0F
:100D0C000E0240F824205DE0092200E0002202FAE5
:100D1C000EF22A430234614D45F82420604A94684F
:100D2C006FEA0C0224EA0C054E6816F4801F01D001
:100D3C004CEA04055A4CA560E46802EA04054E68C6
:100D4C0016F4001F01D04CEA0405554CE5606468AC
:100D5C0002EA04054E6816F4003F01D04CEA040583
:100D6C004F4C6560246822404D6815F4803F01D0DB
:100D7C004CEA04024A4C226001330F2B00F28A80A9
:100D8C0001229A400C6804EA020C32EA0404F3D102
:100D9C004C6804F00304013C012C8AD94A6802F027
:100DAC000302032A09D0C4685D000322AA4024EA86
:100DBC0002048A68AA402243C2604A6802F0030215
:100DCC00022A8DD004684FEA430E032202FA0EF277
:100DDC0024EA02044A6802F0030202FA0EF22243E9
:100DEC0002604A6812F4403FC6D0002201922D4A9C
:100DFC00546C44F480445464526C02F4804201926A
:100E0C00019A9C08A51C254A52F8255003F0030EA4
:100E1C004FEA8E0E0F2202FA0EF225EA0205224A42
:100E2C0090423FF473AF02F58062904222D002F5FB
:100E3C008062904220D002F5806290421ED002F572
:100E4C00806290421CD002F5806290421AD002F56A
:100E5C008062904218D002F58062904216D002F562
:100E6C008062904214D002F5806290423FF44CAF05
:100E7C000A224CE701224AE7022248E7032246E70E
:100E8C00042244E7052242E7062240E707223EE718
:100E9C0008223CE702B070BD704700BF003801402B
:100EAC00003C014000380240000002400AB1816160
:100EBC007047090481617047002808DB0901C9B239
:100ECC0000F1604000F5614080F80013704700F0BD
:100EDC000F000901C9B2014B1954704714ED00E021
:100EEC0000B500F00700C0F1070CBCF1040F28BFDF
:100EFC004FF0040C031D062B0FD9C31E4FF0FF3E01
:100F0C000EFA0CF021EA000199400EFA03FE22EAD7
:100F1C000E0241EA02005DF804FB0023EEE700003C
:100F2C00074AD36823F4E0631B041B0C000200F493
:100F3C00E060034343F0BF6343F40033D360704776
:100F4C0000ED00E010B50446054BD868C0F3022054
:100F5C00FFF7C6FF01462046FFF7AEFF10BD00BFEE
:100F6C0000ED00E00138B0F1807F0BD24FF0E023B0
:100F7C005861054AF02182F823100020986107225D
:100F8C001A6170470120704700ED00E010B504466F
:100F9C000E4B1A784FF47A73B3FBF2F30C4A1068C9
:100FAC00B0FBF3F0FFF7DEFF68B90F2C01D901207D
:100FBC000AE0002221464FF0FF30FFF7C3FF054B3C
:100FCC001C60002000E0012010BD00BF00000020CC
:100FDC00080000200400002008B50B4B1A6842F4EE
:100FEC0000721A601A6842F480621A601A6842F43D
:100FFC0080721A600320FFF793FF0F20FFF7C6FFE4
:10100C00FFF71AFB002008BD003C0240034A1168A0
:10101C00034B1B780B441360704700BF2800002063
:10102C0000000020014B1868704700BF280000200A
:10103C00034AD2F8883043F47003C2F88830704702
:10104C0000ED00E030B589B00024039404940594BD
:10105C00069407940194144B1A6B42F080021A63A5
:10106C001A6B02F080020192019A02941A6B42F000
:10107C0040021A631B6B03F040030293029B0B4D5F
:10108C0022464FF4C0412846FFF710FF4FF4C043EF
:10109C0003930123049305940323069303A9284681
:1010AC00FFF700FE09B030BD0038024000180240C6
:1010BC0008B5012914BF00220122012802D0022800
:1010CC0006D008BD4FF400510448FFF7EFFEF8E7D7
:1010DC004FF480410148FFF7E9FEF2E700180240A7
:1010EC00DFF834D00D480E490E4A002302E0D458E4
:1010FC00C4500433C4188C42F9D30B4A0B4C002354
:10110C0001E013600432A242FBD3FFF791FF00F021
:10111C0011F8FFF757FA7047000003200000002079
:10112C000C000020D01100080C0000202C00002026
:10113C00FEE7000070B50D4D0D4C641BA41000268D
:10114C00A64209D10B4D0C4C00F020F8641BA410E6
:10115C000026A64205D170BD55F8043B98470136D0
:10116C00EEE755F8043B98470136F2E7C811000842
:10117C00C8110008C8110008CC110008024403462D
:10118C00934200D1704703F8011BF9E7F8B500BF93
:10119C00F8BC08BC9E467047F8B500BFF8BC08BC4C
:0411AC009E467047A4
:1011B0000000000000000000010203040607080907
:0811C000A4F0FF7F0100000014
:0411C8001502000804
:0411CC00ED01000829
:0C11D00001000000100000000024F400EA
:04000005080010EDF2
:00000001FF
